:020000040800F2
:1000000010B5054C237833B9044B13B10448AFF352
:1000100000800123237010BD600400200000000058
:10002000240C000808B5064B1BB106480649AFF37F
:1000300000800648036813B1054B03B1984708BD1B
:1000400000000000240C0008640400205C04002070
:1000500000000000154B002B08BF134B9D46A3F575
:10006000803A00218B460F461348144A121A00F0BA
:100070005FFC0F4B002B00D098470E4B002B00D09D
:1000800098470020002104000D000D48002802D0F0
:100090000C4800F019FD00F023FC2000290000F0BE
:1000A00087FD00F00DFC00BF00000800000000000C
:1000B0000000000000000000600400208004002018
:1000C000C90A0008D50A0008314B82B01A6842F00C
:1000D00001021A6059682F4A0A405A601A6822F0D1
:1000E000847222F480321A601A6822F480221A6024
:1000F0005A6822F4FE025A604FF41F029A600022EE
:10010000DA62009201921A6842F480321A601A6828
:1001100002F400320192009A01320092019A1AB957
:10012000009AB2F5A06FF2D11A6812F4003218BF2B
:1001300001220192019A012A05D0174B4FF000626B
:100140009A6002B070475A685A605A685A605A6892
:100150005A605A6822F47C125A605A6842F4981223
:100160005A601A6842F080721A601968084A890158
:10017000FBD5516821F003015160516841F0020143
:1001800051605A6802F00C02082AFAD1D5E700BF84
:10019000001002400000FFF800ED00E0134A10B527
:1001A0005168134B01F00C01042901D0082901D03A
:1001B000104911E051685068C1F38341C00301F157
:1001C000020101D40C4806E0D06A0A4C00F00F008E
:1001D0000130B4FBF0F0414319605268C2F30312DE
:1001E0001A4411791A68CA401A6010BD0010024002
:1001F0000400002000127A0000093D0008B52B4BD6
:1002000098421DD02A4B984223D02A4B984229D09D
:10021000294B98422FD0294B984235D0284B9842F1
:100220003BD0284B984200D008BD802040000121DF
:1002300000F0D8FA80204000002100F0D3FAF3E764
:100240000420012100F0CEFA0420002100F0CAFAB7
:10025000EAE70820012100F0C5FA0820002100F09B
:10026000C1FAE1E71020012100F0BCFA10200021C2
:1002700000F0B8FAD8E72020012100F0B3FA2020DE
:10028000002100F0AFFACFE74020012100F0AAFAE8
:100290004020002100F0A6FAC6E78020012100F0EE
:1002A000A1FA8020002100F09DFABDE7000801407E
:1002B000000C0140001001400014014000180140F2
:1002C000001C01400020014008B50120012100F080
:1002D00089FA0120002100F085FA08BDF0B55F46DB
:1002E0004D4656464446F0B4CD780F272F40EA06D7
:1002F00001D58B781F430B78BB460C88002B26D08A
:1003000003680F279C4601260023B84602E001330C
:10031000082B1AD0321C9A40211C11409142F6D170
:100320009A004746974092466246BA4394465746DB
:100330005A46BA4067461743BC46282D3BD0482D45
:10034000E5D101330161082BE4D161460160FF2C46
:1003500029D942680F27944600230126B84602E0B7
:100360000133082B1DD01A1C0832311C91400A1C85
:10037000211C11409142F3D19A0047469740924682
:100380006246BA43944657465A46BA4067461743B0
:10039000BC46282D0DD0482DE2D101330161082B38
:1003A000E1D1614641603CBC90469946A246AB46CD
:1003B000F0BD4161D4E74161A9E7C04601235B423A
:1003C0000380022383700423C37070478068084051
:1003D000431E9841C0B27047806880B27047C046E3
:1003E000C0680840431E9841C0B27047C06880B2E0
:1003F0007047C0460161704741617047002A01D1D2
:10040000416170470161FCE7C160704780235B0276
:100410000B43836181618361836983697047C0464F
:10042000054B10B5054A1C68224011430201081C07
:100430001043186010BDC0460000014080FF00005E
:10044000014B18607047C0461C00204270B5184B25
:10045000002829DB5A6803041D0CC0239B03041CDD
:100460001C409C4218D0C30212D4430D1B012C1C0B
:100470009C40F023A2431B051343002903D0420DE7
:10048000120195402B430A4A00280FDB536070BDD0
:1004900003031B0F0324EBE7131C054A054C5668A6
:1004A000234034405460E8E7DA69D4E7D361EEE7EB
:1004B00000000140FFFFFFF003230B40084A8908BA
:1004C0008900891810B58A689B000F249C40A243BC
:1004D0008A608A689840031C13438B6010BDC04635
:1004E00000000140014B18607047C046DC0020420C
:1004F0000D4B012219680A431A6059680B4A0A40D9
:100500005A6019680A4A0A401A601968094A0A407A
:100510001A605968084A0A405A609F2212049A6079
:100520000022DA627047C046001002400000FFF867
:10053000FFFFF6FEFFFFFBFFFFFF80FF0D4B0E4AA4
:1005400019680A401A6019680C4A0A401A60802229
:100550005202904209D08022D202904204D11968FE
:10056000A022D2020A431A6070471A68104318602A
:10057000FAE7C04600100240FFFFFEFFFFFFFBFF4F
:10058000002382B001938022A0230B499202D8005D
:100590000B6813420BD1019B01330193019B8342F2
:1005A000F6D1054B18688003C00F02B07047019B5D
:1005B00001330193019BF4E700100240034BF82143
:1005C0001A68C0008A431043186070470010024048
:1005D000014B18607047C04600004242044B10B502
:1005E000044A5C68224011430843586010BDC0466D
:1005F00000100240FFFFC2FF014B18607047C04669
:1006000060004242044B10B5044ADC6A22401143A8
:100610000843D86210BDC04600100240F0FFFEFF44
:10062000034B03215A688A43104358607047C04601
:1006300000100240024B0C205B6818407047C04617
:1006400000100240034BF0215A688A43104358605F
:100650007047C04600100240034B044A59680A40E4
:10066000104358607047C04600100240FFF8FFFF7B
:10067000034B044A5968C0000A4010435860704751
:1006800000100240FFC7FFFF044B1A78002902D177
:1006900082431A70704710431870FBE7091002403C
:1006A000014B18607047C046D8004242034B044AD1
:1006B00059680A40104358607047C0460010024015
:1006C000FF3FFFFF064B00221A701A70012804D06A
:1006D000042801D105221A7070471870FCE7C04643
:1006E00020100240014B18607047C046800442420F
:1006F000024B1A6A104318627047C046001002404D
:10070000014B18607047C0463C0442421F4A38B54E
:1007100053680C21041C0B40042B01D0082B20D063
:100720001B482060194A1B4B51680906090F595C88
:10073000C84060605168051C4905490F595CCD40AF
:10074000A56051688904490F595CC840E06052684F
:100750001204920F9B18197CC9B200F09DF8206119
:1007600038BD55685368AD022D0F0235D90303D447
:10077000094868432060D5E7D36A0F211940013149
:10078000034800F089F868432060CBE7001002407E
:1007900000127A001800002000093D00044B5A693D
:1007A000002902D182435A61704710435861FBE728
:1007B00000100240044B9A69002902D182439A61D9
:1007C000704710439861FBE700100240044BDA6960
:1007D000002902D18243DA6170471043D861FBE7F8
:1007E00000100240044BDA68002902D18243DA602B
:1007F00070471043D860FBE700100240044B1A69B1
:10080000002902D182431A61704710431861FBE747
:1008100000100240014B18607047C046400442423D
:10082000014B18607047C0464C004242014B1870A3
:100830007047C046071002404309012B0AD0022B23
:100840000BD0074B5A6A1F231840C240101C0123CB
:1008500018407047024B1A68F5E7014B1A6AF2E735
:1008600000100240034B8022596A52040A435A6224
:100870007047C04600100240034B9B681840431E5F
:100880009841C0B27047C04600100240014B18703A
:100890007047C0460A100240002902D0B0FBF1F0B8
:1008A000704708B14FF0FF3000F008B80029F8D0C9
:1008B0000246B0FBF1F000FB11217047704700BF0A
:1008C00008B50021044600F087F8044B1868C36B94
:1008D00003B19847204600F069F900BF080C0008F2
:1008E00070B50F4E0F4D761BB61007D0043D002497
:1008F000013455F8043F9847A642F9D10A4E0B4DF2
:1009000000F084F9761BB61008D0043D00240134B1
:1009100055F8043F9847A642F9D170BD70BD00BF9D
:10092000300C0008300C0008380C0008300C0008AF
:10093000F0B4840743D0541E002A3ED0CDB2034603
:1009400003E0621E002C38D0144603F8015B9A07BE
:10095000F7D1032C2AD9CDB245EA05250F2C45EA5B
:10096000054515D9A4F110073F0903F1100606EB60
:1009700007161A46156055609560D5601032B24270
:10098000F8D104F00F040137032C03EB07130DD942
:100990001E462246043A032A46F8045BFAD8221F70
:1009A00022F003020432134404F003042CB1C9B250
:1009B0001C4403F8011BA342FBD1F0BC7047144652
:1009C0000346C6E7024B13B1024800F07DB87047FA
:1009D00000000000D50A00082DE9F04F384B85B023
:1009E0001B68029003F5A47201930F460392019BCA
:1009F000D3F84881B8F1000F1CD0DDF80CB04FF0EF
:100A00000109DA46D8F804305C1E11D408F18805D3
:100A10009E1C05EB830508EB860677B1EB6FBB42A6
:100A20000BD0013C631CA5F10405A6F10406F4D12A
:100A3000244A7ABB05B0BDE8F08FD8F8042056F8F8
:100A4000043C013AA24216BF0022C8F8044046F80E
:100A5000042C002BE5D009FA04F2D8F88811D8F854
:100A600004B00A4210D0D8F88C110A420ED1029874
:100A700055F8041C9847D8F804305B45B7D1DAF82C
:100A800000304345CDD0B2E79847F4E755F8040C61
:100A90009847F0E7D8F804306BB9D8F8003063B164
:100AA0004046CAF80030AFF30080DAF80080B8F1B1
:100AB000000FA7D1BEE7D8F80030C2469846F6E747
:100AC000080C000800000000014600200246034612
:100AD00000F018B838B5094D094C641BA41018BFB4
:100AE00005EB840505D0013C55F8043D9847002CE2
:100AF000F9D1BDE8384000F08FB800BF380C0008CD
:100B00003C0C0008F0B5274C85B026680746D6F89F
:100B10004841002C40D065681F2D1EDD224818B9C1
:100B20004FF0FF3005B0F0BD4FF4C8700391029252
:100B30000193AFF3008003990446029A019B0028B9
:100B4000EED0D6F848510020256060600546C6F812
:100B50004841C4F88801C4F88C013FB96B1C0020DF
:100B60000235636044F8251005B0F0BD0126AE40A3
:100B700004EB8500C0F88820D4F88821022F42EACF
:100B80000602C4F88821C0F80831E7D1D4F88C31C6
:100B90001E43C4F88C61E1E706F5A674C6F8484127
:100BA000B9E700BF080C000800000000FEE700BF26
:100BB00008B520200121FFF7FDFD104905230B801A
:100BC00003238B700E481023CB70FFF787FB0C4B71
:100BD00005221A615A611A615A611A615A611A61D1
:100BE0005A611A615A611A615A611A615A611A612D
:100BF0005A611A615A611A615A61E8E77C0400205F
:100C0000001401404300000030000020F8B500BF90
:100C1000F8BC08BC9E467047F8B500BFF8BC08BCDD
:040C20009E46704735
:040C240000000000CC
:080C28002CF4FF7F0100000025
:080C3000C509000825000008B9
:040C380001000008AF
:100C3C000000000000366E01000000000000000003
:100C4C000102030406070809000000000102030466
:100C5C00010203040607080902040608000000004C
:100C6C00000000001C03002084030020EC03002083
:100C7C000000000000000000000000000000000068
:100C8C000000000000000000000000000000000058
:100C9C0000000000040C0008000000000000000030
:100CAC000000000000000000000000000000000038
:100CBC000000000000000000000000000000000028
:100CCC000000000000000000000000000000000018
:100CDC000000000000000000000000000000000008
:100CEC0000000000000000000000000000000000F8
:100CFC0000000000000000000000000000000000E8
:100D0C0000000000000000000100000000000000D6
:100D1C000E33CDAB34126DE6ECDE05000B0000009B
:100D2C0000000000000000000000000000000000B7
:100D3C0000000000000000000000000000000000A7
:100D4C000000000000000000000000000000000097
:100D5C000000000000000000000000000000000087
:0C108C0000000000000000003000002008
:041098000000000054
:0400000508000000EF
:00000001FF
